{
  "contractName": "FiatContract",
  "abi": [
    {
      "inputs": [],
      "payable": false,
      "stateMutability": "nonpayable",
      "type": "constructor"
    },
    {
      "anonymous": false,
      "inputs": [
        {
          "indexed": false,
          "internalType": "uint256",
          "name": "id",
          "type": "uint256"
        },
        {
          "indexed": false,
          "internalType": "string",
          "name": "token",
          "type": "string"
        }
      ],
      "name": "NewPrice",
      "type": "event"
    },
    {
      "payable": true,
      "stateMutability": "payable",
      "type": "fallback"
    },
    {
      "constant": true,
      "inputs": [],
      "name": "sender",
      "outputs": [
        {
          "internalType": "address",
          "name": "",
          "type": "address"
        }
      ],
      "payable": false,
      "stateMutability": "view",
      "type": "function"
    },
    {
      "constant": true,
      "inputs": [
        {
          "internalType": "uint256",
          "name": "",
          "type": "uint256"
        }
      ],
      "name": "tokens",
      "outputs": [
        {
          "internalType": "string",
          "name": "name",
          "type": "string"
        },
        {
          "internalType": "uint256",
          "name": "eth",
          "type": "uint256"
        },
        {
          "internalType": "uint256",
          "name": "usd",
          "type": "uint256"
        },
        {
          "internalType": "uint256",
          "name": "eur",
          "type": "uint256"
        },
        {
          "internalType": "uint256",
          "name": "gbp",
          "type": "uint256"
        },
        {
          "internalType": "uint256",
          "name": "block",
          "type": "uint256"
        }
      ],
      "payable": false,
      "stateMutability": "view",
      "type": "function"
    },
    {
      "constant": true,
      "inputs": [
        {
          "internalType": "uint256",
          "name": "_id",
          "type": "uint256"
        }
      ],
      "name": "ETH",
      "outputs": [
        {
          "internalType": "uint256",
          "name": "",
          "type": "uint256"
        }
      ],
      "payable": false,
      "stateMutability": "view",
      "type": "function"
    },
    {
      "constant": true,
      "inputs": [
        {
          "internalType": "uint256",
          "name": "_id",
          "type": "uint256"
        }
      ],
      "name": "USD",
      "outputs": [
        {
          "internalType": "uint256",
          "name": "",
          "type": "uint256"
        }
      ],
      "payable": false,
      "stateMutability": "view",
      "type": "function"
    },
    {
      "constant": true,
      "inputs": [
        {
          "internalType": "uint256",
          "name": "_id",
          "type": "uint256"
        }
      ],
      "name": "EUR",
      "outputs": [
        {
          "internalType": "uint256",
          "name": "",
          "type": "uint256"
        }
      ],
      "payable": false,
      "stateMutability": "view",
      "type": "function"
    },
    {
      "constant": true,
      "inputs": [
        {
          "internalType": "uint256",
          "name": "_id",
          "type": "uint256"
        }
      ],
      "name": "GBP",
      "outputs": [
        {
          "internalType": "uint256",
          "name": "",
          "type": "uint256"
        }
      ],
      "payable": false,
      "stateMutability": "view",
      "type": "function"
    },
    {
      "constant": true,
      "inputs": [
        {
          "internalType": "uint256",
          "name": "_id",
          "type": "uint256"
        }
      ],
      "name": "updatedAt",
      "outputs": [
        {
          "internalType": "uint256",
          "name": "",
          "type": "uint256"
        }
      ],
      "payable": false,
      "stateMutability": "view",
      "type": "function"
    },
    {
      "constant": false,
      "inputs": [
        {
          "internalType": "uint256",
          "name": "id",
          "type": "uint256"
        },
        {
          "internalType": "string",
          "name": "_token",
          "type": "string"
        },
        {
          "internalType": "uint256",
          "name": "eth",
          "type": "uint256"
        },
        {
          "internalType": "uint256",
          "name": "usd",
          "type": "uint256"
        },
        {
          "internalType": "uint256",
          "name": "eur",
          "type": "uint256"
        },
        {
          "internalType": "uint256",
          "name": "gbp",
          "type": "uint256"
        }
      ],
      "name": "update",
      "outputs": [],
      "payable": false,
      "stateMutability": "nonpayable",
      "type": "function"
    }
  ],
  "bytecode": "0x608060405234801561001057600080fd5b5033600160006101000a81548173ffffffffffffffffffffffffffffffffffffffff021916908373ffffffffffffffffffffffffffffffffffffffff160217905550610800806100616000396000f3fe60806040526004361061007b5760003560e01c806367e404ce1161004e57806367e404ce146102aa57806367f01c0414610301578063c818faec14610350578063d67ae54d1461039f5761007b565b80630c560c641461007d5780631833fa4c146100cc5780634f64b2be146101845780635a8ef28a1461025b575b005b34801561008957600080fd5b506100b6600480360360208110156100a057600080fd5b81019080803590602001909291905050506103ee565b6040518082815260200191505060405180910390f35b3480156100d857600080fd5b50610182600480360360c08110156100ef57600080fd5b81019080803590602001909291908035906020019064010000000081111561011657600080fd5b82018360208201111561012857600080fd5b8035906020019184600183028401116401000000008311171561014a57600080fd5b90919293919293908035906020019092919080359060200190929190803590602001909291908035906020019092919050505061040d565b005b34801561019057600080fd5b506101bd600480360360208110156101a757600080fd5b81019080803590602001909291905050506105b0565b6040518080602001878152602001868152602001858152602001848152602001838152602001828103825288818151815260200191508051906020019080838360005b8381101561021b578082015181840152602081019050610200565b50505050905090810190601f1680156102485780820380516001836020036101000a031916815260200191505b5097505050505050505060405180910390f35b34801561026757600080fd5b506102946004803603602081101561027e57600080fd5b8101908080359060200190929190505050610684565b6040518082815260200191505060405180910390f35b3480156102b657600080fd5b506102bf6106a3565b604051808273ffffffffffffffffffffffffffffffffffffffff1673ffffffffffffffffffffffffffffffffffffffff16815260200191505060405180910390f35b34801561030d57600080fd5b5061033a6004803603602081101561032457600080fd5b81019080803590602001909291905050506106c9565b6040518082815260200191505060405180910390f35b34801561035c57600080fd5b506103896004803603602081101561037357600080fd5b81019080803590602001909291905050506106e8565b6040518082815260200191505060405180910390f35b3480156103ab57600080fd5b506103d8600480360360208110156103c257600080fd5b8101908080359060200190929190505050610707565b6040518082815260200191505060405180910390f35b6000806000838152602001908152602001600020600201549050919050565b600160009054906101000a900473ffffffffffffffffffffffffffffffffffffffff1673ffffffffffffffffffffffffffffffffffffffff163373ffffffffffffffffffffffffffffffffffffffff161461046757600080fd5b6040518060c0016040528087878080601f016020809104026020016040519081016040528093929190818152602001838380828437600081840152601f19601f820116905080830192505050505050508152602001858152602001848152602001838152602001828152602001438152506000808981526020019081526020016000206000820151816000019080519060200190610506929190610726565b506020820151816001015560408201518160020155606082015181600301556080820151816004015560a082015181600501559050507fd766911918e4a4ff28516cc02a5ae3c2096061ee7408787974101985cf9e062887878760405180848152602001806020018281038252848482818152602001925080828437600081840152601f19601f82011690508083019250505094505050505060405180910390a150505050505050565b6000602052806000526040600020600091509050806000018054600181600116156101000203166002900480601f01602080910402602001604051908101604052809291908181526020018280546001816001161561010002031660029004801561065c5780601f106106315761010080835404028352916020019161065c565b820191906000526020600020905b81548152906001019060200180831161063f57829003601f168201915b5050505050908060010154908060020154908060030154908060040154908060050154905086565b6000806000838152602001908152602001600020600401549050919050565b600160009054906101000a900473ffffffffffffffffffffffffffffffffffffffff1681565b6000806000838152602001908152602001600020600101549050919050565b6000806000838152602001908152602001600020600501549050919050565b6000806000838152602001908152602001600020600301549050919050565b828054600181600116156101000203166002900490600052602060002090601f016020900481019282601f1061076757805160ff1916838001178555610795565b82800160010185558215610795579182015b82811115610794578251825591602001919060010190610779565b5b5090506107a291906107a6565b5090565b6107c891905b808211156107c45760008160009055506001016107ac565b5090565b9056fea265627a7a72315820ad0f3cf7393abb47616b72333b6af02b8c1bbae2bcada303d10850a5048c4f7f64736f6c63430005110032",
  "source": "pragma solidity ^0.5.13;\n\n/*\n\n    Crypto Market Prices via Ethereum Smart Contract\n\n    A community driven smart contract that lets your contracts use fiat\n    amounts in USD, EURO, and GBP. Need to charge $10.50 for a contract call?\n    With this contract, you can convert ETH and other crypto's.\n\n    Repo: https://github.com/hunterlong/coinmarketcontract\n\n    Examples:\n\n      FiatContract price = FiatContract(CONTRACT_ADDRESS);\n\n      uint256 ethCent = price.USD(0);        // returns $0.01 worth of ETH in USD.\n      uint256 weiAmount = ethCent * 2500     // returns $25.00 worth of ETH in USD\n      require(msg.value == weiAmount);       // require $25.00 worth of ETH as a payment\n      \n    Please look at Repo or Website to get Currency ID values.\n\n    @author Hunter Long\n*/\n\ncontract FiatContract {\n\n    mapping(uint => Token) public tokens;\n\n    address public sender;\n\n    event NewPrice(uint id, string token);\n\n    struct Token {\n        string name;\n        uint256 eth;\n        uint256 usd;\n        uint256 eur;\n        uint256 gbp;\n        uint block;\n    }\n\n    // initialize function\n    constructor() public {\n        sender = msg.sender;\n    }\n\n    // returns rate price of coin related to ETH.\n    function ETH(uint _id) view public returns (uint256) {\n        return tokens[_id].eth;\n    }\n\n    // returns 0.01 value in United States Dollar\n    function USD(uint _id) view public returns (uint256) {\n        return tokens[_id].usd;\n    }\n\n    // returns 0.01 value in Euro\n    function EUR(uint _id) view public returns (uint256) {\n        return tokens[_id].eur;\n    }\n\n    // returns 0.01 value in British Pound\n    function GBP(uint _id) view public returns (uint256) {\n        return tokens[_id].gbp;\n    }\n\n    // returns block when price was updated last\n    function updatedAt(uint _id) view public returns (uint) {\n        return tokens[_id].block;\n    }\n\n    // update market rates in USD, EURO, and GBP for a specific coin\n    function update(uint id, string calldata _token, uint256 eth, uint256 usd, uint256 eur, uint256 gbp) external {\n        require(msg.sender==sender);\n        tokens[id] = Token(_token, eth, usd, eur, gbp, block.number);\n        emit NewPrice(id, _token);\n    }\n\n    // default function so this contract can accept ETH with low gas limits.\n    function() payable external {\n\n    }\n\n}\n",
  "sourcePath": "/workspaces/vscode-remote-try-python/SIMPLE/in-app-pro-shop/contracts/FiatContract.sol",
  "compiler": {
    "name": "solc",
    "version": "0.5.17+commit.d19bba13.Emscripten.clang"
  },
  "schemaVersion": "3.4.6",
  "updatedAt": "2022-03-26T06:01:17.242Z",
  "networkType": "ethereum",
  "devdoc": {
    "methods": {}
  },
  "userdoc": {
    "methods": {}
  }
}