{
  "contractName": "ItemFactory",
  "abi": [
    {
      "anonymous": false,
      "inputs": [
        {
          "indexed": true,
          "internalType": "address",
          "name": "owner",
          "type": "address"
        },
        {
          "indexed": true,
          "internalType": "address",
          "name": "approved",
          "type": "address"
        },
        {
          "indexed": true,
          "internalType": "uint256",
          "name": "tokenId",
          "type": "uint256"
        }
      ],
      "name": "Approval",
      "type": "event"
    },
    {
      "anonymous": false,
      "inputs": [
        {
          "indexed": true,
          "internalType": "address",
          "name": "owner",
          "type": "address"
        },
        {
          "indexed": true,
          "internalType": "address",
          "name": "operator",
          "type": "address"
        },
        {
          "indexed": false,
          "internalType": "bool",
          "name": "approved",
          "type": "bool"
        }
      ],
      "name": "ApprovalForAll",
      "type": "event"
    },
    {
      "anonymous": false,
      "inputs": [],
      "name": "ContractPaused",
      "type": "event"
    },
    {
      "anonymous": false,
      "inputs": [],
      "name": "ContractUnpaused",
      "type": "event"
    },
    {
      "anonymous": false,
      "inputs": [
        {
          "indexed": false,
          "internalType": "address",
          "name": "newContract",
          "type": "address"
        }
      ],
      "name": "ContractUpgrade",
      "type": "event"
    },
    {
      "anonymous": false,
      "inputs": [
        {
          "indexed": true,
          "internalType": "uint256",
          "name": "shopId",
          "type": "uint256"
        },
        {
          "indexed": true,
          "internalType": "uint256",
          "name": "skuId",
          "type": "uint256"
        },
        {
          "indexed": false,
          "internalType": "uint256",
          "name": "itemId",
          "type": "uint256"
        },
        {
          "indexed": false,
          "internalType": "uint256",
          "name": "amount",
          "type": "uint256"
        },
        {
          "indexed": false,
          "internalType": "uint256",
          "name": "fee",
          "type": "uint256"
        },
        {
          "indexed": false,
          "internalType": "uint256",
          "name": "net",
          "type": "uint256"
        }
      ],
      "name": "NewItem",
      "type": "event"
    },
    {
      "anonymous": false,
      "inputs": [
        {
          "indexed": true,
          "internalType": "address",
          "name": "from",
          "type": "address"
        },
        {
          "indexed": true,
          "internalType": "address",
          "name": "to",
          "type": "address"
        },
        {
          "indexed": true,
          "internalType": "uint256",
          "name": "tokenId",
          "type": "uint256"
        }
      ],
      "name": "Transfer",
      "type": "event"
    },
    {
      "constant": true,
      "inputs": [],
      "name": "TOKEN_NAME",
      "outputs": [
        {
          "internalType": "string",
          "name": "",
          "type": "string"
        }
      ],
      "payable": false,
      "stateMutability": "view",
      "type": "function"
    },
    {
      "constant": true,
      "inputs": [],
      "name": "TOKEN_SYMBOL",
      "outputs": [
        {
          "internalType": "string",
          "name": "",
          "type": "string"
        }
      ],
      "payable": false,
      "stateMutability": "view",
      "type": "function"
    },
    {
      "constant": false,
      "inputs": [
        {
          "internalType": "address",
          "name": "to",
          "type": "address"
        },
        {
          "internalType": "uint256",
          "name": "tokenId",
          "type": "uint256"
        }
      ],
      "name": "approve",
      "outputs": [],
      "payable": false,
      "stateMutability": "nonpayable",
      "type": "function"
    },
    {
      "constant": true,
      "inputs": [
        {
          "internalType": "address",
          "name": "owner",
          "type": "address"
        }
      ],
      "name": "balanceOf",
      "outputs": [
        {
          "internalType": "uint256",
          "name": "",
          "type": "uint256"
        }
      ],
      "payable": false,
      "stateMutability": "view",
      "type": "function"
    },
    {
      "constant": true,
      "inputs": [],
      "name": "baseURI",
      "outputs": [
        {
          "internalType": "string",
          "name": "",
          "type": "string"
        }
      ],
      "payable": false,
      "stateMutability": "view",
      "type": "function"
    },
    {
      "constant": true,
      "inputs": [],
      "name": "franchiseBalance",
      "outputs": [
        {
          "internalType": "uint256",
          "name": "",
          "type": "uint256"
        }
      ],
      "payable": false,
      "stateMutability": "view",
      "type": "function"
    },
    {
      "constant": true,
      "inputs": [],
      "name": "franchiseFeePercent",
      "outputs": [
        {
          "internalType": "uint256",
          "name": "",
          "type": "uint256"
        }
      ],
      "payable": false,
      "stateMutability": "view",
      "type": "function"
    },
    {
      "constant": true,
      "inputs": [
        {
          "internalType": "uint256",
          "name": "tokenId",
          "type": "uint256"
        }
      ],
      "name": "getApproved",
      "outputs": [
        {
          "internalType": "address",
          "name": "",
          "type": "address"
        }
      ],
      "payable": false,
      "stateMutability": "view",
      "type": "function"
    },
    {
      "constant": true,
      "inputs": [
        {
          "internalType": "address",
          "name": "owner",
          "type": "address"
        },
        {
          "internalType": "address",
          "name": "operator",
          "type": "address"
        }
      ],
      "name": "isApprovedForAll",
      "outputs": [
        {
          "internalType": "bool",
          "name": "",
          "type": "bool"
        }
      ],
      "payable": false,
      "stateMutability": "view",
      "type": "function"
    },
    {
      "constant": true,
      "inputs": [
        {
          "internalType": "uint256",
          "name": "",
          "type": "uint256"
        }
      ],
      "name": "items",
      "outputs": [
        {
          "internalType": "address",
          "name": "owner",
          "type": "address"
        },
        {
          "internalType": "uint256",
          "name": "shopId",
          "type": "uint256"
        },
        {
          "internalType": "uint256",
          "name": "itemId",
          "type": "uint256"
        },
        {
          "internalType": "uint256",
          "name": "skuId",
          "type": "uint256"
        },
        {
          "internalType": "bool",
          "name": "consumed",
          "type": "bool"
        }
      ],
      "payable": false,
      "stateMutability": "view",
      "type": "function"
    },
    {
      "constant": true,
      "inputs": [],
      "name": "name",
      "outputs": [
        {
          "internalType": "string",
          "name": "",
          "type": "string"
        }
      ],
      "payable": false,
      "stateMutability": "view",
      "type": "function"
    },
    {
      "constant": true,
      "inputs": [],
      "name": "newContractAddress",
      "outputs": [
        {
          "internalType": "address",
          "name": "",
          "type": "address"
        }
      ],
      "payable": false,
      "stateMutability": "view",
      "type": "function"
    },
    {
      "constant": true,
      "inputs": [
        {
          "internalType": "address",
          "name": "",
          "type": "address"
        },
        {
          "internalType": "uint256",
          "name": "",
          "type": "uint256"
        }
      ],
      "name": "ownedItems",
      "outputs": [
        {
          "internalType": "uint256",
          "name": "",
          "type": "uint256"
        }
      ],
      "payable": false,
      "stateMutability": "view",
      "type": "function"
    },
    {
      "constant": true,
      "inputs": [
        {
          "internalType": "uint256",
          "name": "tokenId",
          "type": "uint256"
        }
      ],
      "name": "ownerOf",
      "outputs": [
        {
          "internalType": "address",
          "name": "",
          "type": "address"
        }
      ],
      "payable": false,
      "stateMutability": "view",
      "type": "function"
    },
    {
      "constant": false,
      "inputs": [],
      "name": "pause",
      "outputs": [],
      "payable": false,
      "stateMutability": "nonpayable",
      "type": "function"
    },
    {
      "constant": true,
      "inputs": [],
      "name": "paused",
      "outputs": [
        {
          "internalType": "bool",
          "name": "",
          "type": "bool"
        }
      ],
      "payable": false,
      "stateMutability": "view",
      "type": "function"
    },
    {
      "constant": false,
      "inputs": [
        {
          "internalType": "address",
          "name": "from",
          "type": "address"
        },
        {
          "internalType": "address",
          "name": "to",
          "type": "address"
        },
        {
          "internalType": "uint256",
          "name": "tokenId",
          "type": "uint256"
        }
      ],
      "name": "safeTransferFrom",
      "outputs": [],
      "payable": false,
      "stateMutability": "nonpayable",
      "type": "function"
    },
    {
      "constant": false,
      "inputs": [
        {
          "internalType": "address",
          "name": "from",
          "type": "address"
        },
        {
          "internalType": "address",
          "name": "to",
          "type": "address"
        },
        {
          "internalType": "uint256",
          "name": "tokenId",
          "type": "uint256"
        },
        {
          "internalType": "bytes",
          "name": "_data",
          "type": "bytes"
        }
      ],
      "name": "safeTransferFrom",
      "outputs": [],
      "payable": false,
      "stateMutability": "nonpayable",
      "type": "function"
    },
    {
      "constant": false,
      "inputs": [
        {
          "internalType": "address",
          "name": "to",
          "type": "address"
        },
        {
          "internalType": "bool",
          "name": "approved",
          "type": "bool"
        }
      ],
      "name": "setApprovalForAll",
      "outputs": [],
      "payable": false,
      "stateMutability": "nonpayable",
      "type": "function"
    },
    {
      "constant": true,
      "inputs": [
        {
          "internalType": "uint256",
          "name": "",
          "type": "uint256"
        }
      ],
      "name": "shopBalances",
      "outputs": [
        {
          "internalType": "uint256",
          "name": "",
          "type": "uint256"
        }
      ],
      "payable": false,
      "stateMutability": "view",
      "type": "function"
    },
    {
      "constant": true,
      "inputs": [
        {
          "internalType": "uint256",
          "name": "",
          "type": "uint256"
        },
        {
          "internalType": "uint256",
          "name": "",
          "type": "uint256"
        }
      ],
      "name": "shopItems",
      "outputs": [
        {
          "internalType": "uint256",
          "name": "",
          "type": "uint256"
        }
      ],
      "payable": false,
      "stateMutability": "view",
      "type": "function"
    },
    {
      "constant": true,
      "inputs": [
        {
          "internalType": "uint256",
          "name": "",
          "type": "uint256"
        },
        {
          "internalType": "uint256",
          "name": "",
          "type": "uint256"
        }
      ],
      "name": "skuItems",
      "outputs": [
        {
          "internalType": "uint256",
          "name": "",
          "type": "uint256"
        }
      ],
      "payable": false,
      "stateMutability": "view",
      "type": "function"
    },
    {
      "constant": true,
      "inputs": [
        {
          "internalType": "bytes4",
          "name": "interfaceId",
          "type": "bytes4"
        }
      ],
      "name": "supportsInterface",
      "outputs": [
        {
          "internalType": "bool",
          "name": "",
          "type": "bool"
        }
      ],
      "payable": false,
      "stateMutability": "view",
      "type": "function"
    },
    {
      "constant": true,
      "inputs": [],
      "name": "symbol",
      "outputs": [
        {
          "internalType": "string",
          "name": "",
          "type": "string"
        }
      ],
      "payable": false,
      "stateMutability": "view",
      "type": "function"
    },
    {
      "constant": true,
      "inputs": [
        {
          "internalType": "uint256",
          "name": "index",
          "type": "uint256"
        }
      ],
      "name": "tokenByIndex",
      "outputs": [
        {
          "internalType": "uint256",
          "name": "",
          "type": "uint256"
        }
      ],
      "payable": false,
      "stateMutability": "view",
      "type": "function"
    },
    {
      "constant": true,
      "inputs": [
        {
          "internalType": "address",
          "name": "owner",
          "type": "address"
        },
        {
          "internalType": "uint256",
          "name": "index",
          "type": "uint256"
        }
      ],
      "name": "tokenOfOwnerByIndex",
      "outputs": [
        {
          "internalType": "uint256",
          "name": "",
          "type": "uint256"
        }
      ],
      "payable": false,
      "stateMutability": "view",
      "type": "function"
    },
    {
      "constant": true,
      "inputs": [
        {
          "internalType": "uint256",
          "name": "tokenId",
          "type": "uint256"
        }
      ],
      "name": "tokenURI",
      "outputs": [
        {
          "internalType": "string",
          "name": "",
          "type": "string"
        }
      ],
      "payable": false,
      "stateMutability": "view",
      "type": "function"
    },
    {
      "constant": true,
      "inputs": [],
      "name": "totalSupply",
      "outputs": [
        {
          "internalType": "uint256",
          "name": "",
          "type": "uint256"
        }
      ],
      "payable": false,
      "stateMutability": "view",
      "type": "function"
    },
    {
      "constant": false,
      "inputs": [
        {
          "internalType": "address",
          "name": "from",
          "type": "address"
        },
        {
          "internalType": "address",
          "name": "to",
          "type": "address"
        },
        {
          "internalType": "uint256",
          "name": "tokenId",
          "type": "uint256"
        }
      ],
      "name": "transferFrom",
      "outputs": [],
      "payable": false,
      "stateMutability": "nonpayable",
      "type": "function"
    },
    {
      "constant": false,
      "inputs": [],
      "name": "unpause",
      "outputs": [],
      "payable": false,
      "stateMutability": "nonpayable",
      "type": "function"
    },
    {
      "constant": false,
      "inputs": [
        {
          "internalType": "address",
          "name": "_newAddress",
          "type": "address"
        }
      ],
      "name": "upgradeContract",
      "outputs": [],
      "payable": false,
      "stateMutability": "nonpayable",
      "type": "function"
    },
    {
      "constant": true,
      "inputs": [],
      "name": "upgraded",
      "outputs": [
        {
          "internalType": "bool",
          "name": "",
          "type": "bool"
        }
      ],
      "payable": false,
      "stateMutability": "view",
      "type": "function"
    },
    {
      "constant": false,
      "inputs": [
        {
          "internalType": "uint256",
          "name": "_shopId",
          "type": "uint256"
        },
        {
          "internalType": "uint256",
          "name": "_skuId",
          "type": "uint256"
        }
      ],
      "name": "createItem",
      "outputs": [
        {
          "internalType": "uint256",
          "name": "",
          "type": "uint256"
        }
      ],
      "payable": true,
      "stateMutability": "payable",
      "type": "function"
    }
  ],
  "bytecode": "0x60806040526000601060006101000a81548160ff0219169083151502179055506000601060016101000a81548160ff0219169083151502179055506040518060400160405280601081526020017f496e41707050726f53686f704974656d000000000000000000000000000000008152506040518060400160405280600481526020017f49415053000000000000000000000000000000000000000000000000000000008152508181620000c06301ffc9a760e01b6200019560201b60201c565b620000d86380ac58cd60e01b6200019560201b60201c565b620000f063780e9d6360e01b6200019560201b60201c565b81600990805190602001906200010892919062000462565b5080600a90805190602001906200012192919062000462565b506200013a635b5e139f60e01b6200019560201b60201c565b505050506001601060016101000a81548160ff0219169083151502179055506200017433600d6200029e60201b620037391790919060201c565b6200018f33600e6200029e60201b620037391790919060201c565b62000511565b63ffffffff60e01b817bffffffffffffffffffffffffffffffffffffffffffffffffffffffff1916141562000232576040517f08c379a000000000000000000000000000000000000000000000000000000000815260040180806020018281038252601c8152602001807f4552433136353a20696e76616c696420696e746572666163652069640000000081525060200191505060405180910390fd5b6001600080837bffffffffffffffffffffffffffffffffffffffffffffffffffffffff19167bffffffffffffffffffffffffffffffffffffffffffffffffffffffff1916815260200190815260200160002060006101000a81548160ff02191690831515021790555050565b620002b082826200038260201b60201c565b1562000324576040517f08c379a000000000000000000000000000000000000000000000000000000000815260040180806020018281038252601f8152602001807f526f6c65733a206163636f756e7420616c72656164792068617320726f6c650081525060200191505060405180910390fd5b60018260000160008373ffffffffffffffffffffffffffffffffffffffff1673ffffffffffffffffffffffffffffffffffffffff16815260200190815260200160002060006101000a81548160ff0219169083151502179055505050565b60008073ffffffffffffffffffffffffffffffffffffffff168273ffffffffffffffffffffffffffffffffffffffff1614156200040b576040517f08c379a000000000000000000000000000000000000000000000000000000000815260040180806020018281038252602281526020018062003fe76022913960400191505060405180910390fd5b8260000160008373ffffffffffffffffffffffffffffffffffffffff1673ffffffffffffffffffffffffffffffffffffffff16815260200190815260200160002060009054906101000a900460ff16905092915050565b828054600181600116156101000203166002900490600052602060002090601f016020900481019282601f10620004a557805160ff1916838001178555620004d6565b82800160010185558215620004d6579182015b82811115620004d5578251825591602001919060010190620004b8565b5b509050620004e59190620004e9565b5090565b6200050e91905b808211156200050a576000816000905550600101620004f0565b5090565b90565b613ac680620005216000396000f3fe6080604052600436106101ee5760003560e01c80635c975abb1161010d578063a22cb465116100a0578063c28de2cd1161006f578063c28de2cd14610d4b578063c87b56dd14610d7a578063e659ebef14610e2e578063e985e9c514610e7d578063eb2c022314610f06576101ee565b8063a22cb46514610af5578063adae08dd14610b52578063b88d4fde14610b9e578063bfb231d214610cb0576101ee565b806370a08231116100dc57806370a08231146109905780637ceab6b0146109f55780638456cb5914610a4e57806395d89b4114610a65576101ee565b80635c975abb146107ff5780636352211e1461082e5780636af04a57146108a95780636c0360eb14610900576101ee565b80632a90531811610185578063428465341161015457806342846534146106eb578063477e2b3c1461075a5780634b2aecdc146107855780634f6ccce7146107b0576101ee565b80632a9053181461055a5780632f745c59146105ea5780633f4ba83a1461065957806342842e0e14610670576101ee565b806318160ddd116101c157806318160ddd146103cb57806318821400146103f657806323b872dd1461048657806327bcfd6114610501576101ee565b806301ffc9a7146101f357806306fdde0314610265578063081812fc146102f5578063095ea7b314610370575b600080fd5b3480156101ff57600080fd5b5061024b6004803603602081101561021657600080fd5b8101908080357bffffffffffffffffffffffffffffffffffffffffffffffffffffffff19169060200190929190505050610f57565b604051808215151515815260200191505060405180910390f35b34801561027157600080fd5b5061027a610fbe565b6040518080602001828103825283818151815260200191508051906020019080838360005b838110156102ba57808201518184015260208101905061029f565b50505050905090810190601f1680156102e75780820380516001836020036101000a031916815260200191505b509250505060405180910390f35b34801561030157600080fd5b5061032e6004803603602081101561031857600080fd5b8101908080359060200190929190505050611060565b604051808273ffffffffffffffffffffffffffffffffffffffff1673ffffffffffffffffffffffffffffffffffffffff16815260200191505060405180910390f35b34801561037c57600080fd5b506103c96004803603604081101561039357600080fd5b81019080803573ffffffffffffffffffffffffffffffffffffffff169060200190929190803590602001909291905050506110fb565b005b3480156103d757600080fd5b506103e06112e2565b6040518082815260200191505060405180910390f35b34801561040257600080fd5b5061040b6112ef565b6040518080602001828103825283818151815260200191508051906020019080838360005b8381101561044b578082015181840152602081019050610430565b50505050905090810190601f1680156104785780820380516001836020036101000a031916815260200191505b509250505060405180910390f35b34801561049257600080fd5b506104ff600480360360608110156104a957600080fd5b81019080803573ffffffffffffffffffffffffffffffffffffffff169060200190929190803573ffffffffffffffffffffffffffffffffffffffff16906020019092919080359060200190929190505050611328565b005b34801561050d57600080fd5b506105446004803603604081101561052457600080fd5b81019080803590602001909291908035906020019092919050505061139e565b6040518082815260200191505060405180910390f35b34801561056657600080fd5b5061056f6113cc565b6040518080602001828103825283818151815260200191508051906020019080838360005b838110156105af578082015181840152602081019050610594565b50505050905090810190601f1680156105dc5780820380516001836020036101000a031916815260200191505b509250505060405180910390f35b3480156105f657600080fd5b506106436004803603604081101561060d57600080fd5b81019080803573ffffffffffffffffffffffffffffffffffffffff16906020019092919080359060200190929190505050611405565b6040518082815260200191505060405180910390f35b34801561066557600080fd5b5061066e6114c4565b005b34801561067c57600080fd5b506106e96004803603606081101561069357600080fd5b81019080803573ffffffffffffffffffffffffffffffffffffffff169060200190929190803573ffffffffffffffffffffffffffffffffffffffff1690602001909291908035906020019092919050505061155d565b005b3480156106f757600080fd5b506107446004803603604081101561070e57600080fd5b81019080803573ffffffffffffffffffffffffffffffffffffffff1690602001909291908035906020019092919050505061157d565b6040518082815260200191505060405180910390f35b34801561076657600080fd5b5061076f6115ab565b6040518082815260200191505060405180910390f35b34801561079157600080fd5b5061079a6115b1565b6040518082815260200191505060405180910390f35b3480156107bc57600080fd5b506107e9600480360360208110156107d357600080fd5b81019080803590602001909291905050506115b7565b6040518082815260200191505060405180910390f35b34801561080b57600080fd5b50610814611637565b604051808215151515815260200191505060405180910390f35b34801561083a57600080fd5b506108676004803603602081101561085157600080fd5b810190808035906020019092919050505061164a565b604051808273ffffffffffffffffffffffffffffffffffffffff1673ffffffffffffffffffffffffffffffffffffffff16815260200191505060405180910390f35b3480156108b557600080fd5b506108be611712565b604051808273ffffffffffffffffffffffffffffffffffffffff1673ffffffffffffffffffffffffffffffffffffffff16815260200191505060405180910390f35b34801561090c57600080fd5b50610915611738565b6040518080602001828103825283818151815260200191508051906020019080838360005b8381101561095557808201518184015260208101905061093a565b50505050905090810190601f1680156109825780820380516001836020036101000a031916815260200191505b509250505060405180910390f35b34801561099c57600080fd5b506109df600480360360208110156109b357600080fd5b81019080803573ffffffffffffffffffffffffffffffffffffffff1690602001909291905050506117da565b6040518082815260200191505060405180910390f35b348015610a0157600080fd5b50610a3860048036036040811015610a1857600080fd5b8101908080359060200190929190803590602001909291905050506118af565b6040518082815260200191505060405180910390f35b348015610a5a57600080fd5b50610a636118dd565b005b348015610a7157600080fd5b50610a7a61195d565b6040518080602001828103825283818151815260200191508051906020019080838360005b83811015610aba578082015181840152602081019050610a9f565b50505050905090810190601f168015610ae75780820380516001836020036101000a031916815260200191505b509250505060405180910390f35b348015610b0157600080fd5b50610b5060048036036040811015610b1857600080fd5b81019080803573ffffffffffffffffffffffffffffffffffffffff1690602001909291908035151590602001909291905050506119ff565b005b610b8860048036036040811015610b6857600080fd5b810190808035906020019092919080359060200190929190505050611bb7565b6040518082815260200191505060405180910390f35b348015610baa57600080fd5b50610cae60048036036080811015610bc157600080fd5b81019080803573ffffffffffffffffffffffffffffffffffffffff169060200190929190803573ffffffffffffffffffffffffffffffffffffffff1690602001909291908035906020019092919080359060200190640100000000811115610c2857600080fd5b820183602082011115610c3a57600080fd5b80359060200191846001830284011164010000000083111715610c5c57600080fd5b91908080601f016020809104026020016040519081016040528093929190818152602001838380828437600081840152601f19601f820116905080830192505050505050509192919290505050612052565b005b348015610cbc57600080fd5b50610ce960048036036020811015610cd357600080fd5b81019080803590602001909291905050506120ca565b604051808673ffffffffffffffffffffffffffffffffffffffff1673ffffffffffffffffffffffffffffffffffffffff168152602001858152602001848152602001838152602001821515151581526020019550505050505060405180910390f35b348015610d5757600080fd5b50610d6061213a565b604051808215151515815260200191505060405180910390f35b348015610d8657600080fd5b50610db360048036036020811015610d9d57600080fd5b810190808035906020019092919050505061214d565b6040518080602001828103825283818151815260200191508051906020019080838360005b83811015610df3578082015181840152602081019050610dd8565b50505050905090810190601f168015610e205780820380516001836020036101000a031916815260200191505b509250505060405180910390f35b348015610e3a57600080fd5b50610e6760048036036020811015610e5157600080fd5b810190808035906020019092919050505061234f565b6040518082815260200191505060405180910390f35b348015610e8957600080fd5b50610eec60048036036040811015610ea057600080fd5b81019080803573ffffffffffffffffffffffffffffffffffffffff169060200190929190803573ffffffffffffffffffffffffffffffffffffffff169060200190929190505050612367565b604051808215151515815260200191505060405180910390f35b348015610f1257600080fd5b50610f5560048036036020811015610f2957600080fd5b81019080803573ffffffffffffffffffffffffffffffffffffffff1690602001909291905050506123fb565b005b6000806000837bffffffffffffffffffffffffffffffffffffffffffffffffffffffff19167bffffffffffffffffffffffffffffffffffffffffffffffffffffffff1916815260200190815260200160002060009054906101000a900460ff169050919050565b606060098054600181600116156101000203166002900480601f0160208091040260200160405190810160405280929190818152602001828054600181600116156101000203166002900480156110565780601f1061102b57610100808354040283529160200191611056565b820191906000526020600020905b81548152906001019060200180831161103957829003601f168201915b5050505050905090565b600061106b8261250d565b6110c0576040517f08c379a000000000000000000000000000000000000000000000000000000000815260040180806020018281038252602c81526020018061396e602c913960400191505060405180910390fd5b6002600083815260200190815260200160002060009054906101000a900473ffffffffffffffffffffffffffffffffffffffff169050919050565b60006111068261164a565b90508073ffffffffffffffffffffffffffffffffffffffff168373ffffffffffffffffffffffffffffffffffffffff16141561118d576040517f08c379a0000000000000000000000000000000000000000000000000000000008152600401808060200182810382526021815260200180613a146021913960400191505060405180910390fd5b8073ffffffffffffffffffffffffffffffffffffffff166111ac61257f565b73ffffffffffffffffffffffffffffffffffffffff1614806111db57506111da816111d561257f565b612367565b5b611230576040517f08c379a00000000000000000000000000000000000000000000000000000000081526004018080602001828103825260388152602001806138c26038913960400191505060405180910390fd5b826002600084815260200190815260200160002060006101000a81548173ffffffffffffffffffffffffffffffffffffffff021916908373ffffffffffffffffffffffffffffffffffffffff160217905550818373ffffffffffffffffffffffffffffffffffffffff168273ffffffffffffffffffffffffffffffffffffffff167f8c5be1e5ebec7d5bd14f71427d1e84f3dd0314c0f7b2291e5b200ac8c7c3b92560405160405180910390a4505050565b6000600780549050905090565b6040518060400160405280601081526020017f496e41707050726f53686f704974656d0000000000000000000000000000000081525081565b61133961133361257f565b82612587565b61138e576040517f08c379a0000000000000000000000000000000000000000000000000000000008152600401808060200182810382526031815260200180613a356031913960400191505060405180910390fd5b61139983838361267b565b505050565b601360205281600052604060002081815481106113b757fe5b90600052602060002001600091509150505481565b6040518060400160405280600481526020017f494150530000000000000000000000000000000000000000000000000000000081525081565b6000611410836117da565b8210611467576040517f08c379a000000000000000000000000000000000000000000000000000000000815260040180806020018281038252602b815260200180613815602b913960400191505060405180910390fd5b600560008473ffffffffffffffffffffffffffffffffffffffff1673ffffffffffffffffffffffffffffffffffffffff16815260200190815260200160002082815481106114b157fe5b9060005260206000200154905092915050565b6114d833600d61269f90919063ffffffff16565b6114e157600080fd5b601060019054906101000a900460ff166114fa57600080fd5b601060009054906101000a900460ff161561151457600080fd5b6000601060016101000a81548160ff0219169083151502179055507f0e5e3b3fb504c22cf5c42fa07d521225937514c654007e1f12646f89768d6f9460405160405180910390a1565b61157883838360405180602001604052806000815250612052565b505050565b6015602052816000526040600020818154811061159657fe5b90600052602060002001600091509150505481565b60175481565b60185481565b60006115c16112e2565b8210611618576040517f08c379a000000000000000000000000000000000000000000000000000000000815260040180806020018281038252602c815260200180613a66602c913960400191505060405180910390fd5b6007828154811061162557fe5b90600052602060002001549050919050565b601060019054906101000a900460ff1681565b6000806001600084815260200190815260200160002060009054906101000a900473ffffffffffffffffffffffffffffffffffffffff169050600073ffffffffffffffffffffffffffffffffffffffff168173ffffffffffffffffffffffffffffffffffffffff161415611709576040517f08c379a00000000000000000000000000000000000000000000000000000000081526004018080602001828103825260298152602001806139246029913960400191505060405180910390fd5b80915050919050565b601060029054906101000a900473ffffffffffffffffffffffffffffffffffffffff1681565b6060600b8054600181600116156101000203166002900480601f0160208091040260200160405190810160405280929190818152602001828054600181600116156101000203166002900480156117d05780601f106117a5576101008083540402835291602001916117d0565b820191906000526020600020905b8154815290600101906020018083116117b357829003601f168201915b5050505050905090565b60008073ffffffffffffffffffffffffffffffffffffffff168273ffffffffffffffffffffffffffffffffffffffff161415611861576040517f08c379a000000000000000000000000000000000000000000000000000000000815260040180806020018281038252602a8152602001806138fa602a913960400191505060405180910390fd5b6118a8600360008473ffffffffffffffffffffffffffffffffffffffff1673ffffffffffffffffffffffffffffffffffffffff16815260200190815260200160002061277d565b9050919050565b601460205281600052604060002081815481106118c857fe5b90600052602060002001600091509150505481565b6118f133600d61269f90919063ffffffff16565b6118fa57600080fd5b601060019054906101000a900460ff161561191457600080fd5b6001601060016101000a81548160ff0219169083151502179055507fab35696f06e428ebc5ceba8cd17f8fed287baf43440206d1943af1ee53e6d26760405160405180910390a1565b6060600a8054600181600116156101000203166002900480601f0160208091040260200160405190810160405280929190818152602001828054600181600116156101000203166002900480156119f55780601f106119ca576101008083540402835291602001916119f5565b820191906000526020600020905b8154815290600101906020018083116119d857829003601f168201915b5050505050905090565b611a0761257f565b73ffffffffffffffffffffffffffffffffffffffff168273ffffffffffffffffffffffffffffffffffffffff161415611aa8576040517f08c379a00000000000000000000000000000000000000000000000000000000081526004018080602001828103825260198152602001807f4552433732313a20617070726f766520746f2063616c6c65720000000000000081525060200191505060405180910390fd5b8060046000611ab561257f565b73ffffffffffffffffffffffffffffffffffffffff1673ffffffffffffffffffffffffffffffffffffffff16815260200190815260200160002060008473ffffffffffffffffffffffffffffffffffffffff1673ffffffffffffffffffffffffffffffffffffffff16815260200190815260200160002060006101000a81548160ff0219169083151502179055508173ffffffffffffffffffffffffffffffffffffffff16611b6261257f565b73ffffffffffffffffffffffffffffffffffffffff167f17307eab39ab6107e8899845ad3d59bd9653f200f220920489ca2b5937696c3183604051808215151515815260200191505060405180910390a35050565b6000601060019054906101000a900460ff1615611bd357600080fd5b60011515601160009054906101000a900473ffffffffffffffffffffffffffffffffffffffff1673ffffffffffffffffffffffffffffffffffffffff1663f29d498a8460136000878152602001908152602001600020805490506040518363ffffffff1660e01b8152600401808381526020018281526020019250505060206040518083038186803b158015611c6857600080fd5b505afa158015611c7c573d6000803e3d6000fd5b505050506040513d6020811015611c9257600080fd5b8101908080519060200190929190505050151514611caf57600080fd5b601160009054906101000a900473ffffffffffffffffffffffffffffffffffffffff1673ffffffffffffffffffffffffffffffffffffffff1663ae539d80836040518263ffffffff1660e01b81526004018082815260200191505060206040518083038186803b158015611d2257600080fd5b505afa158015611d36573d6000803e3d6000fd5b505050506040513d6020811015611d4c57600080fd5b81019080805190602001909291905050503414611d6857600080fd5b6000611d92601854611d8460643461278b90919063ffffffff16565b6127d590919063ffffffff16565b9050611da98160175461285b90919063ffffffff16565b6017819055506000611dc482346128e390919063ffffffff16565b9050611dec81601660008881526020019081526020016000205461285b90919063ffffffff16565b601660008781526020019081526020016000208190555060006012805490509050600033905060126040518060a001604052808373ffffffffffffffffffffffffffffffffffffffff168152602001898152602001848152602001888152602001600015158152509080600181540180825580915050906001820390600052602060002090600502016000909192909190915060008201518160000160006101000a81548173ffffffffffffffffffffffffffffffffffffffff021916908373ffffffffffffffffffffffffffffffffffffffff16021790555060208201518160010155604082015181600201556060820151816003015560808201518160040160006101000a81548160ff021916908315150217905550505050601560008273ffffffffffffffffffffffffffffffffffffffff1673ffffffffffffffffffffffffffffffffffffffff1681526020019081526020016000208290806001815401808255809150509060018203906000526020600020016000909192909190915055506014600088815260200190815260200160002082908060018154018082558091505090600182039060005260206000200160009091929091909150555060136000878152602001908152602001600020829080600181540180825580915050906001820390600052602060002001600090919290919091505550611ff4818361292d565b85877f3210ade2d42380eb21f74419d934cd7b57aea57c0ce9a7b8afe59336780a07da843488886040518085815260200184815260200183815260200182815260200194505050505060405180910390a38194505050505092915050565b61206361205d61257f565b83612587565b6120b8576040517f08c379a0000000000000000000000000000000000000000000000000000000008152600401808060200182810382526031815260200180613a356031913960400191505060405180910390fd5b6120c48484848461294e565b50505050565b601281815481106120d757fe5b90600052602060002090600502016000915090508060000160009054906101000a900473ffffffffffffffffffffffffffffffffffffffff16908060010154908060020154908060030154908060040160009054906101000a900460ff16905085565b601060009054906101000a900460ff1681565b60606121588261250d565b6121ad576040517f08c379a000000000000000000000000000000000000000000000000000000000815260040180806020018281038252602f8152602001806139e5602f913960400191505060405180910390fd5b6060600c60008481526020019081526020016000208054600181600116156101000203166002900480601f0160208091040260200160405190810160405280929190818152602001828054600181600116156101000203166002900480156122565780601f1061222b57610100808354040283529160200191612256565b820191906000526020600020905b81548152906001019060200180831161223957829003601f168201915b5050505050905060008151141561227f576040518060200160405280600081525091505061234a565b600b8160405160200180838054600181600116156101000203166002900480156122e05780601f106122be5761010080835404028352918201916122e0565b820191906000526020600020905b8154815290600101906020018083116122cc575b505082805190602001908083835b6020831061231157805182526020820191506020810190506020830392506122ee565b6001836020036101000a038019825116818451168082178552505050505050905001925050506040516020818303038152906040529150505b919050565b60166020528060005260406000206000915090505481565b6000600460008473ffffffffffffffffffffffffffffffffffffffff1673ffffffffffffffffffffffffffffffffffffffff16815260200190815260200160002060008373ffffffffffffffffffffffffffffffffffffffff1673ffffffffffffffffffffffffffffffffffffffff16815260200190815260200160002060009054906101000a900460ff16905092915050565b61240f33600d61269f90919063ffffffff16565b61241857600080fd5b601060019054906101000a900460ff1661243157600080fd5b601060009054906101000a900460ff161561244b57600080fd5b6001601060006101000a81548160ff02191690831515021790555080601060026101000a81548173ffffffffffffffffffffffffffffffffffffffff021916908373ffffffffffffffffffffffffffffffffffffffff1602179055507f450db8da6efbe9c22f2347f7c2021231df1fc58d3ae9a2fa75d39fa44619930581604051808273ffffffffffffffffffffffffffffffffffffffff1673ffffffffffffffffffffffffffffffffffffffff16815260200191505060405180910390a150565b6000806001600084815260200190815260200160002060009054906101000a900473ffffffffffffffffffffffffffffffffffffffff169050600073ffffffffffffffffffffffffffffffffffffffff168173ffffffffffffffffffffffffffffffffffffffff161415915050919050565b600033905090565b60006125928261250d565b6125e7576040517f08c379a000000000000000000000000000000000000000000000000000000000815260040180806020018281038252602c815260200180613896602c913960400191505060405180910390fd5b60006125f28361164a565b90508073ffffffffffffffffffffffffffffffffffffffff168473ffffffffffffffffffffffffffffffffffffffff16148061266157508373ffffffffffffffffffffffffffffffffffffffff1661264984611060565b73ffffffffffffffffffffffffffffffffffffffff16145b8061267257506126718185612367565b5b91505092915050565b6126868383836129c0565b6126908382612c1b565b61269a8282612db9565b505050565b60008073ffffffffffffffffffffffffffffffffffffffff168273ffffffffffffffffffffffffffffffffffffffff161415612726576040517f08c379a000000000000000000000000000000000000000000000000000000000815260040180806020018281038252602281526020018061399a6022913960400191505060405180910390fd5b8260000160008373ffffffffffffffffffffffffffffffffffffffff1673ffffffffffffffffffffffffffffffffffffffff16815260200190815260200160002060009054906101000a900460ff16905092915050565b600081600001549050919050565b60006127cd83836040518060400160405280601a81526020017f536166654d6174683a206469766973696f6e206279207a65726f000000000000815250612e80565b905092915050565b6000808314156127e85760009050612855565b60008284029050828482816127f957fe5b0414612850576040517f08c379a000000000000000000000000000000000000000000000000000000000815260040180806020018281038252602181526020018061394d6021913960400191505060405180910390fd5b809150505b92915050565b6000808284019050838110156128d9576040517f08c379a000000000000000000000000000000000000000000000000000000000815260040180806020018281038252601b8152602001807f536166654d6174683a206164646974696f6e206f766572666c6f77000000000081525060200191505060405180910390fd5b8091505092915050565b600061292583836040518060400160405280601e81526020017f536166654d6174683a207375627472616374696f6e206f766572666c6f770000815250612f46565b905092915050565b6129378282613006565b6129418282612db9565b61294a8161321e565b5050565b61295984848461267b565b6129658484848461326a565b6129ba576040517f08c379a00000000000000000000000000000000000000000000000000000000081526004018080602001828103825260328152602001806138406032913960400191505060405180910390fd5b50505050565b8273ffffffffffffffffffffffffffffffffffffffff166129e08261164a565b73ffffffffffffffffffffffffffffffffffffffff1614612a4c576040517f08c379a00000000000000000000000000000000000000000000000000000000081526004018080602001828103825260298152602001806139bc6029913960400191505060405180910390fd5b600073ffffffffffffffffffffffffffffffffffffffff168273ffffffffffffffffffffffffffffffffffffffff161415612ad2576040517f08c379a00000000000000000000000000000000000000000000000000000000081526004018080602001828103825260248152602001806138726024913960400191505060405180910390fd5b612adb816135a6565b612b22600360008573ffffffffffffffffffffffffffffffffffffffff1673ffffffffffffffffffffffffffffffffffffffff168152602001908152602001600020613664565b612b69600360008473ffffffffffffffffffffffffffffffffffffffff1673ffffffffffffffffffffffffffffffffffffffff168152602001908152602001600020613687565b816001600083815260200190815260200160002060006101000a81548173ffffffffffffffffffffffffffffffffffffffff021916908373ffffffffffffffffffffffffffffffffffffffff160217905550808273ffffffffffffffffffffffffffffffffffffffff168473ffffffffffffffffffffffffffffffffffffffff167fddf252ad1be2c89b69c2b068fc378daa952ba7f163c4a11628f55a4df523b3ef60405160405180910390a4505050565b6000612c736001600560008673ffffffffffffffffffffffffffffffffffffffff1673ffffffffffffffffffffffffffffffffffffffff168152602001908152602001600020805490506128e390919063ffffffff16565b9050600060066000848152602001908152602001600020549050818114612d60576000600560008673ffffffffffffffffffffffffffffffffffffffff1673ffffffffffffffffffffffffffffffffffffffff1681526020019081526020016000208381548110612ce057fe5b9060005260206000200154905080600560008773ffffffffffffffffffffffffffffffffffffffff1673ffffffffffffffffffffffffffffffffffffffff1681526020019081526020016000208381548110612d3857fe5b9060005260206000200181905550816006600083815260200190815260200160002081905550505b600560008573ffffffffffffffffffffffffffffffffffffffff1673ffffffffffffffffffffffffffffffffffffffff168152602001908152602001600020805480919060019003612db291906136e8565b5050505050565b600560008373ffffffffffffffffffffffffffffffffffffffff1673ffffffffffffffffffffffffffffffffffffffff168152602001908152602001600020805490506006600083815260200190815260200160002081905550600560008373ffffffffffffffffffffffffffffffffffffffff1673ffffffffffffffffffffffffffffffffffffffff1681526020019081526020016000208190806001815401808255809150509060018203906000526020600020016000909192909190915055505050565b60008083118290612f2c576040517f08c379a00000000000000000000000000000000000000000000000000000000081526004018080602001828103825283818151815260200191508051906020019080838360005b83811015612ef1578082015181840152602081019050612ed6565b50505050905090810190601f168015612f1e5780820380516001836020036101000a031916815260200191505b509250505060405180910390fd5b506000838581612f3857fe5b049050809150509392505050565b6000838311158290612ff3576040517f08c379a00000000000000000000000000000000000000000000000000000000081526004018080602001828103825283818151815260200191508051906020019080838360005b83811015612fb8578082015181840152602081019050612f9d565b50505050905090810190601f168015612fe55780820380516001836020036101000a031916815260200191505b509250505060405180910390fd5b5060008385039050809150509392505050565b600073ffffffffffffffffffffffffffffffffffffffff168273ffffffffffffffffffffffffffffffffffffffff1614156130a9576040517f08c379a00000000000000000000000000000000000000000000000000000000081526004018080602001828103825260208152602001807f4552433732313a206d696e7420746f20746865207a65726f206164647265737381525060200191505060405180910390fd5b6130b28161250d565b15613125576040517f08c379a000000000000000000000000000000000000000000000000000000000815260040180806020018281038252601c8152602001807f4552433732313a20746f6b656e20616c7265616479206d696e7465640000000081525060200191505060405180910390fd5b816001600083815260200190815260200160002060006101000a81548173ffffffffffffffffffffffffffffffffffffffff021916908373ffffffffffffffffffffffffffffffffffffffff1602179055506131be600360008473ffffffffffffffffffffffffffffffffffffffff1673ffffffffffffffffffffffffffffffffffffffff168152602001908152602001600020613687565b808273ffffffffffffffffffffffffffffffffffffffff16600073ffffffffffffffffffffffffffffffffffffffff167fddf252ad1be2c89b69c2b068fc378daa952ba7f163c4a11628f55a4df523b3ef60405160405180910390a45050565b6007805490506008600083815260200190815260200160002081905550600781908060018154018082558091505090600182039060005260206000200160009091929091909150555050565b600061328b8473ffffffffffffffffffffffffffffffffffffffff1661369d565b613298576001905061359e565b600060608573ffffffffffffffffffffffffffffffffffffffff168673ffffffffffffffffffffffffffffffffffffffff1663150b7a02905060e01b6132dc61257f565b898888604051602401808573ffffffffffffffffffffffffffffffffffffffff1673ffffffffffffffffffffffffffffffffffffffff1681526020018473ffffffffffffffffffffffffffffffffffffffff1673ffffffffffffffffffffffffffffffffffffffff16815260200183815260200180602001828103825283818151815260200191508051906020019080838360005b8381101561338c578082015181840152602081019050613371565b50505050905090810190601f1680156133b95780820380516001836020036101000a031916815260200191505b5095505050505050604051602081830303815290604052907bffffffffffffffffffffffffffffffffffffffffffffffffffffffff19166020820180517bffffffffffffffffffffffffffffffffffffffffffffffffffffffff83818316178352505050506040518082805190602001908083835b60208310613451578051825260208201915060208101905060208303925061342e565b6001836020036101000a0380198251168184511680821785525050505050509050019150506000604051808303816000865af19150503d80600081146134b3576040519150601f19603f3d011682016040523d82523d6000602084013e6134b8565b606091505b509150915081613526576000815111156134d55780518082602001fd5b6040517f08c379a00000000000000000000000000000000000000000000000000000000081526004018080602001828103825260328152602001806138406032913960400191505060405180910390fd5b600081806020019051602081101561353d57600080fd5b8101908080519060200190929190505050905063150b7a0260e01b7bffffffffffffffffffffffffffffffffffffffffffffffffffffffff1916817bffffffffffffffffffffffffffffffffffffffffffffffffffffffff19161493505050505b949350505050565b600073ffffffffffffffffffffffffffffffffffffffff166002600083815260200190815260200160002060009054906101000a900473ffffffffffffffffffffffffffffffffffffffff1673ffffffffffffffffffffffffffffffffffffffff16146136615760006002600083815260200190815260200160002060006101000a81548173ffffffffffffffffffffffffffffffffffffffff021916908373ffffffffffffffffffffffffffffffffffffffff1602179055505b50565b61367c600182600001546128e390919063ffffffff16565b816000018190555050565b6001816000016000828254019250508190555050565b60008060007fc5d2460186f7233c927e7db2dcc703c0e500b653ca82273b7bfad8045d85a47060001b9050833f91508082141580156136df57506000801b8214155b92505050919050565b81548183558181111561370f5781836000526020600020918201910161370e9190613714565b5b505050565b61373691905b8082111561373257600081600090555060010161371a565b5090565b90565b613743828261269f565b156137b6576040517f08c379a000000000000000000000000000000000000000000000000000000000815260040180806020018281038252601f8152602001807f526f6c65733a206163636f756e7420616c72656164792068617320726f6c650081525060200191505060405180910390fd5b60018260000160008373ffffffffffffffffffffffffffffffffffffffff1673ffffffffffffffffffffffffffffffffffffffff16815260200190815260200160002060006101000a81548160ff021916908315150217905550505056fe455243373231456e756d657261626c653a206f776e657220696e646578206f7574206f6620626f756e64734552433732313a207472616e7366657220746f206e6f6e20455243373231526563656976657220696d706c656d656e7465724552433732313a207472616e7366657220746f20746865207a65726f20616464726573734552433732313a206f70657261746f7220717565727920666f72206e6f6e6578697374656e7420746f6b656e4552433732313a20617070726f76652063616c6c6572206973206e6f74206f776e6572206e6f7220617070726f76656420666f7220616c6c4552433732313a2062616c616e636520717565727920666f7220746865207a65726f20616464726573734552433732313a206f776e657220717565727920666f72206e6f6e6578697374656e7420746f6b656e536166654d6174683a206d756c7469706c69636174696f6e206f766572666c6f774552433732313a20617070726f76656420717565727920666f72206e6f6e6578697374656e7420746f6b656e526f6c65733a206163636f756e7420697320746865207a65726f20616464726573734552433732313a207472616e73666572206f6620746f6b656e2074686174206973206e6f74206f776e4552433732314d657461646174613a2055524920717565727920666f72206e6f6e6578697374656e7420746f6b656e4552433732313a20617070726f76616c20746f2063757272656e74206f776e65724552433732313a207472616e736665722063616c6c6572206973206e6f74206f776e6572206e6f7220617070726f766564455243373231456e756d657261626c653a20676c6f62616c20696e646578206f7574206f6620626f756e6473a265627a7a723158202e6a7b1c7a1b4c79327b517da27147025346d5903e020a923771d3c10efb78c564736f6c63430005110032526f6c65733a206163636f756e7420697320746865207a65726f2061646472657373",
  "source": "pragma solidity ^0.5.13;\n\nimport \"./ProShopBase.sol\";\n\n\n/**\n * @title ItemFactory\n * @notice Defines factory and events related to saleable Items (ERC721 tokens)\n */\ncontract ItemFactory is ProShopBase {\n\n    /**\n     * @notice emitted upon the creation of an Item\n     */\n    event NewItem(\n        uint256 indexed shopId,\n        uint256 indexed skuId,\n        uint256 itemId,\n        uint256 amount,\n        uint256 fee,\n        uint256 net\n    );\n\n    /**\n     * @notice Create an Item\n     */\n    function createItem(\n        uint256 _shopId,\n        uint256 _skuId\n    )\n        public\n        payable\n        whenNotPaused\n        returns (uint256)\n    {\n        // Make sure the item can be minted\n        require(stockRoom.canMintItem(_skuId, skuItems[_skuId].length) == true);\n\n        // Make sure enough Ether has been sent\n        require(msg.value == stockRoom.getPriceInEther(_skuId));\n\n        // Calculate and store the franchise fee\n        uint256 franchiseFee = uint256(msg.value.div(100).mul(franchiseFeePercent));\n        franchiseBalance = franchiseBalance.add(franchiseFee);\n\n        // Calculate and store the Shop's net sale amount\n        uint256 shopNetSale = msg.value.sub(franchiseFee);\n        shopBalances[_shopId] = shopBalances[_shopId].add(shopNetSale);\n\n        // Get the item id\n        uint256 itemId = items.length;\n\n        // Get the owner address\n        address owner = msg.sender;\n\n        // Create and store Item\n        items.push(Item(owner, _shopId, itemId, _skuId, false));\n\n        // Add Item ID to Owner's Items list\n        ownedItems[owner].push(itemId);\n\n        // Add the item to the Shop's list of Items minted\n        shopItems[_shopId].push(itemId);\n\n        // Add the item to the SKU's list of Items minted\n        skuItems[_skuId].push(itemId);\n\n        // Mint the token\n        super._mint(owner, itemId);\n\n        // Emit event with the name of the new Item\n        emit NewItem(_shopId, _skuId, itemId, msg.value, franchiseFee, shopNetSale);\n\n        // Return the new Item ID\n        return itemId;\n    }\n\n}",
  "sourcePath": "/workspaces/vscode-remote-try-python/SIMPLE/in-app-pro-shop/contracts/ItemFactory.sol",
  "compiler": {
    "name": "solc",
    "version": "0.5.17+commit.d19bba13.Emscripten.clang"
  },
  "schemaVersion": "3.4.6",
  "updatedAt": "2022-03-26T02:06:59.723Z",
  "devdoc": {
    "methods": {
      "approve(address,uint256)": {
        "details": "Approves another address to transfer the given token ID The zero address indicates there is no approved address. There can only be one approved address per token at a given time. Can only be called by the token owner or an approved operator.",
        "params": {
          "to": "address to be approved for the given token ID",
          "tokenId": "uint256 ID of the token to be approved"
        }
      },
      "balanceOf(address)": {
        "details": "Gets the balance of the specified address.",
        "params": {
          "owner": "address to query the balance of"
        },
        "return": "uint256 representing the amount owned by the passed address"
      },
      "baseURI()": {
        "details": "Returns the base URI set via {_setBaseURI}. This will be automatically added as a preffix in {tokenURI} to each token's URI, when they are non-empty.    * _Available since v2.5.0._"
      },
      "getApproved(uint256)": {
        "details": "Gets the approved address for a token ID, or zero if no address set Reverts if the token ID does not exist.",
        "params": {
          "tokenId": "uint256 ID of the token to query the approval of"
        },
        "return": "address currently approved for the given token ID"
      },
      "isApprovedForAll(address,address)": {
        "details": "Tells whether an operator is approved by a given owner.",
        "params": {
          "operator": "operator address which you want to query the approval of",
          "owner": "owner address which you want to query the approval of"
        },
        "return": "bool whether the given operator is approved by the given owner"
      },
      "name()": {
        "details": "Gets the token name.",
        "return": "string representing the token name"
      },
      "ownerOf(uint256)": {
        "details": "Gets the owner of the specified token ID.",
        "params": {
          "tokenId": "uint256 ID of the token to query the owner of"
        },
        "return": "address currently marked as the owner of the given token ID"
      },
      "pause()": {
        "details": "called by the system administrator to pause, triggers stopped state"
      },
      "safeTransferFrom(address,address,uint256)": {
        "details": "Safely transfers the ownership of a given token ID to another address If the target address is a contract, it must implement {IERC721Receiver-onERC721Received}, which is called upon a safe transfer, and return the magic value `bytes4(keccak256(\"onERC721Received(address,address,uint256,bytes)\"))`; otherwise, the transfer is reverted. Requires the msg.sender to be the owner, approved, or operator",
        "params": {
          "from": "current owner of the token",
          "to": "address to receive the ownership of the given token ID",
          "tokenId": "uint256 ID of the token to be transferred"
        }
      },
      "safeTransferFrom(address,address,uint256,bytes)": {
        "details": "Safely transfers the ownership of a given token ID to another address If the target address is a contract, it must implement {IERC721Receiver-onERC721Received}, which is called upon a safe transfer, and return the magic value `bytes4(keccak256(\"onERC721Received(address,address,uint256,bytes)\"))`; otherwise, the transfer is reverted. Requires the _msgSender() to be the owner, approved, or operator",
        "params": {
          "_data": "bytes data to send along with a safe transfer check",
          "from": "current owner of the token",
          "to": "address to receive the ownership of the given token ID",
          "tokenId": "uint256 ID of the token to be transferred"
        }
      },
      "setApprovalForAll(address,bool)": {
        "details": "Sets or unsets the approval of a given operator An operator is allowed to transfer all tokens of the sender on their behalf.",
        "params": {
          "approved": "representing the status of the approval to be set",
          "to": "operator address to set the approval"
        }
      },
      "supportsInterface(bytes4)": {
        "details": "See {IERC165-supportsInterface}.     * Time complexity O(1), guaranteed to always use less than 30 000 gas."
      },
      "symbol()": {
        "details": "Gets the token symbol.",
        "return": "string representing the token symbol"
      },
      "tokenByIndex(uint256)": {
        "details": "Gets the token ID at a given index of all the tokens in this contract Reverts if the index is greater or equal to the total number of tokens.",
        "params": {
          "index": "uint256 representing the index to be accessed of the tokens list"
        },
        "return": "uint256 token ID at the given index of the tokens list"
      },
      "tokenOfOwnerByIndex(address,uint256)": {
        "details": "Gets the token ID at a given index of the tokens list of the requested owner.",
        "params": {
          "index": "uint256 representing the index to be accessed of the requested tokens list",
          "owner": "address owning the tokens list to be accessed"
        },
        "return": "uint256 token ID at the given index of the tokens list owned by the requested address"
      },
      "tokenURI(uint256)": {
        "details": "Returns the URI for a given token ID. May return an empty string.     * If the token's URI is non-empty and a base URI was set (via {_setBaseURI}), it will be added to the token ID's URI as a prefix.     * Reverts if the token ID does not exist."
      },
      "totalSupply()": {
        "details": "Gets the total amount of tokens stored by the contract.",
        "return": "uint256 representing the total amount of tokens"
      },
      "transferFrom(address,address,uint256)": {
        "details": "Transfers the ownership of a given token ID to another address. Usage of this method is discouraged, use {safeTransferFrom} whenever possible. Requires the msg.sender to be the owner, approved, or operator.",
        "params": {
          "from": "current owner of the token",
          "to": "address to receive the ownership of the given token ID",
          "tokenId": "uint256 ID of the token to be transferred"
        }
      },
      "unpause()": {
        "details": "called by the ystem administrator to un-pause, returns to normal state"
      },
      "upgradeContract(address)": {
        "details": "called by a system administrator to  mark the smart contract as upgraded,     in case there is a serious breaking bug. This method stores the new contract     address and emits an event to that effect. Clients of the contract should     update to the new contract address upon receiving this event.     *      This contract will remain paused indefinitely after such an upgrade.",
        "params": {
          "_newAddress": "address of new contract"
        }
      }
    },
    "title": "ItemFactory"
  },
  "userdoc": {
    "methods": {
      "createItem(uint256,uint256)": {
        "notice": "Create an Item"
      }
    },
    "notice": "Defines factory and events related to saleable Items (ERC721 tokens)"
  }
}